{
  "_format": "hh-sol-artifact-1",
  "contractName": "CharityFund",
  "sourceName": "contracts/CharityFund.sol",
  "abi": [
    {
      "inputs": [],
      "stateMutability": "nonpayable",
      "type": "constructor"
    },
    {
      "anonymous": false,
      "inputs": [
        {
          "indexed": false,
          "internalType": "address",
          "name": "donor",
          "type": "address"
        },
        {
          "indexed": false,
          "internalType": "uint256",
          "name": "amount",
          "type": "uint256"
        }
      ],
      "name": "DonationReceived",
      "type": "event"
    },
    {
      "anonymous": false,
      "inputs": [
        {
          "indexed": false,
          "internalType": "address",
          "name": "receiver",
          "type": "address"
        },
        {
          "indexed": false,
          "internalType": "uint256",
          "name": "amount",
          "type": "uint256"
        }
      ],
      "name": "FundsWithdrawn",
      "type": "event"
    },
    {
      "inputs": [],
      "name": "donate",
      "outputs": [],
      "stateMutability": "payable",
      "type": "function"
    },
    {
      "inputs": [
        {
          "internalType": "address",
          "name": "",
          "type": "address"
        }
      ],
      "name": "donations",
      "outputs": [
        {
          "internalType": "uint256",
          "name": "",
          "type": "uint256"
        }
      ],
      "stateMutability": "view",
      "type": "function"
    },
    {
      "inputs": [],
      "name": "getBalance",
      "outputs": [
        {
          "internalType": "uint256",
          "name": "",
          "type": "uint256"
        }
      ],
      "stateMutability": "view",
      "type": "function"
    },
    {
      "inputs": [],
      "name": "goal",
      "outputs": [
        {
          "internalType": "uint256",
          "name": "",
          "type": "uint256"
        }
      ],
      "stateMutability": "view",
      "type": "function"
    },
    {
      "inputs": [],
      "name": "goalReached",
      "outputs": [
        {
          "internalType": "bool",
          "name": "",
          "type": "bool"
        }
      ],
      "stateMutability": "view",
      "type": "function"
    },
    {
      "inputs": [],
      "name": "owner",
      "outputs": [
        {
          "internalType": "address",
          "name": "",
          "type": "address"
        }
      ],
      "stateMutability": "view",
      "type": "function"
    },
    {
      "inputs": [],
      "name": "totalRaised",
      "outputs": [
        {
          "internalType": "uint256",
          "name": "",
          "type": "uint256"
        }
      ],
      "stateMutability": "view",
      "type": "function"
    },
    {
      "inputs": [],
      "name": "withdraw",
      "outputs": [],
      "stateMutability": "nonpayable",
      "type": "function"
    }
  ],
  "bytecode": "0x6080604052670de0b6b3a764000060015534801561001c57600080fd5b50336000806101000a81548173ffffffffffffffffffffffffffffffffffffffff021916908373ffffffffffffffffffffffffffffffffffffffff16021790555060006002819055506000600360006101000a81548160ff02191690831515021790555061080c8061008f6000396000f3fe60806040526004361061007b5760003560e01c80638da5cb5b1161004e5780638da5cb5b14610118578063c5c4744c14610143578063cc6cb19a1461016e578063ed88c68e146101ab5761007b565b806312065fe0146100805780633ccfd60b146100ab57806340193883146100c25780637d3d6522146100ed575b600080fd5b34801561008c57600080fd5b506100956101b5565b6040516100a291906104ea565b60405180910390f35b3480156100b757600080fd5b506100c06101bd565b005b3480156100ce57600080fd5b506100d7610362565b6040516100e491906104ea565b60405180910390f35b3480156100f957600080fd5b50610102610368565b60405161010f9190610520565b60405180910390f35b34801561012457600080fd5b5061012d61037b565b60405161013a919061057c565b60405180910390f35b34801561014f57600080fd5b5061015861039f565b60405161016591906104ea565b60405180910390f35b34801561017a57600080fd5b50610195600480360381019061019091906105c8565b6103a5565b6040516101a291906104ea565b60405180910390f35b6101b36103bd565b005b600047905090565b60008054906101000a900473ffffffffffffffffffffffffffffffffffffffff1673ffffffffffffffffffffffffffffffffffffffff163373ffffffffffffffffffffffffffffffffffffffff161461024b576040517f08c379a000000000000000000000000000000000000000000000000000000000815260040161024290610652565b60405180910390fd5b600360009054906101000a900460ff1661029a576040517f08c379a0000000000000000000000000000000000000000000000000000000008152600401610291906106be565b60405180910390fd5b600047905060008054906101000a900473ffffffffffffffffffffffffffffffffffffffff1673ffffffffffffffffffffffffffffffffffffffff166108fc829081150290604051600060405180830381858888f19350505050158015610305573d6000803e3d6000fd5b507feaff4b37086828766ad3268786972c0cd24259d4c87a80f9d3963a3c3d999b0d60008054906101000a900473ffffffffffffffffffffffffffffffffffffffff16826040516103579291906106de565b60405180910390a150565b60015481565b600360009054906101000a900460ff1681565b60008054906101000a900473ffffffffffffffffffffffffffffffffffffffff1681565b60025481565b60046020528060005260406000206000915090505481565b60003411610400576040517f08c379a00000000000000000000000000000000000000000000000000000000081526004016103f790610753565b60405180910390fd5b34600460003373ffffffffffffffffffffffffffffffffffffffff1673ffffffffffffffffffffffffffffffffffffffff168152602001908152602001600020600082825461044f91906107a2565b92505081905550346002600082825461046891906107a2565b925050819055507f264f630d9efa0d07053a31163641d9fcc0adafc9d9e76f1c37c2ce3a558d2c5233346040516104a09291906106de565b60405180910390a1600154600254106104cf576001600360006101000a81548160ff0219169083151502179055505b565b6000819050919050565b6104e4816104d1565b82525050565b60006020820190506104ff60008301846104db565b92915050565b60008115159050919050565b61051a81610505565b82525050565b60006020820190506105356000830184610511565b92915050565b600073ffffffffffffffffffffffffffffffffffffffff82169050919050565b60006105668261053b565b9050919050565b6105768161055b565b82525050565b6000602082019050610591600083018461056d565b92915050565b600080fd5b6105a58161055b565b81146105b057600080fd5b50565b6000813590506105c28161059c565b92915050565b6000602082840312156105de576105dd610597565b5b60006105ec848285016105b3565b91505092915050565b600082825260208201905092915050565b7f4f6e6c79206f776e65722063616e207769746864726177000000000000000000600082015250565b600061063c6017836105f5565b915061064782610606565b602082019050919050565b6000602082019050818103600083015261066b8161062f565b9050919050565b7f476f616c206e6f74207265616368656420796574000000000000000000000000600082015250565b60006106a86014836105f5565b91506106b382610672565b602082019050919050565b600060208201905081810360008301526106d78161069b565b9050919050565b60006040820190506106f3600083018561056d565b61070060208301846104db565b9392505050565b7f4d7573742073656e642045544820746f20646f6e617465000000000000000000600082015250565b600061073d6017836105f5565b915061074882610707565b602082019050919050565b6000602082019050818103600083015261076c81610730565b9050919050565b7f4e487b7100000000000000000000000000000000000000000000000000000000600052601160045260246000fd5b60006107ad826104d1565b91506107b8836104d1565b92508282019050808211156107d0576107cf610773565b5b9291505056fea2646970667358221220607236746956df0e5057445aa05a73d949bce701cecfcf8345c935da188c58cb64736f6c63430008150033",
  "linkReferences": {},
  "deployedLinkReferences": {}
}