{
  "contractName": "CharityFund",
  "abi": [
    {
      "inputs": [],
      "stateMutability": "nonpayable",
      "type": "constructor"
    },
    {
      "anonymous": false,
      "inputs": [
        {
          "indexed": false,
          "internalType": "address",
          "name": "donor",
          "type": "address"
        },
        {
          "indexed": false,
          "internalType": "uint256",
          "name": "amount",
          "type": "uint256"
        }
      ],
      "name": "DonationReceived",
      "type": "event"
    },
    {
      "anonymous": false,
      "inputs": [
        {
          "indexed": false,
          "internalType": "address",
          "name": "receiver",
          "type": "address"
        },
        {
          "indexed": false,
          "internalType": "uint256",
          "name": "amount",
          "type": "uint256"
        }
      ],
      "name": "FundsWithdrawn",
      "type": "event"
    },
    {
      "inputs": [
        {
          "internalType": "address",
          "name": "",
          "type": "address"
        }
      ],
      "name": "donations",
      "outputs": [
        {
          "internalType": "uint256",
          "name": "",
          "type": "uint256"
        }
      ],
      "stateMutability": "view",
      "type": "function"
    },
    {
      "inputs": [],
      "name": "goal",
      "outputs": [
        {
          "internalType": "uint256",
          "name": "",
          "type": "uint256"
        }
      ],
      "stateMutability": "view",
      "type": "function"
    },
    {
      "inputs": [],
      "name": "goalReached",
      "outputs": [
        {
          "internalType": "bool",
          "name": "",
          "type": "bool"
        }
      ],
      "stateMutability": "view",
      "type": "function"
    },
    {
      "inputs": [],
      "name": "owner",
      "outputs": [
        {
          "internalType": "address",
          "name": "",
          "type": "address"
        }
      ],
      "stateMutability": "view",
      "type": "function"
    },
    {
      "inputs": [],
      "name": "totalRaised",
      "outputs": [
        {
          "internalType": "uint256",
          "name": "",
          "type": "uint256"
        }
      ],
      "stateMutability": "view",
      "type": "function"
    },
    {
      "inputs": [],
      "name": "donate",
      "outputs": [],
      "stateMutability": "payable",
      "type": "function"
    },
    {
      "inputs": [],
      "name": "withdraw",
      "outputs": [],
      "stateMutability": "nonpayable",
      "type": "function"
    },
    {
      "inputs": [],
      "name": "getBalance",
      "outputs": [
        {
          "internalType": "uint256",
          "name": "",
          "type": "uint256"
        }
      ],
      "stateMutability": "view",
      "type": "function"
    }
  ],
  "bytecode": "0x6080604052670de0b6b3a764000060015534801561001b575f80fd5b50335f806101000a81548173ffffffffffffffffffffffffffffffffffffffff021916908373ffffffffffffffffffffffffffffffffffffffff1602179055505f6002819055505f60035f6101000a81548160ff0219169083151502179055506107ce806100885f395ff3fe60806040526004361061007a575f3560e01c80638da5cb5b1161004d5780638da5cb5b14610112578063c5c4744c1461013c578063cc6cb19a14610166578063ed88c68e146101a25761007a565b806312065fe01461007e5780633ccfd60b146100a857806340193883146100be5780637d3d6522146100e8575b5f80fd5b348015610089575f80fd5b506100926101ac565b60405161009f91906104cc565b60405180910390f35b3480156100b3575f80fd5b506100bc6101b3565b005b3480156100c9575f80fd5b506100d2610350565b6040516100df91906104cc565b60405180910390f35b3480156100f3575f80fd5b506100fc610356565b60405161010991906104ff565b60405180910390f35b34801561011d575f80fd5b50610126610368565b6040516101339190610557565b60405180910390f35b348015610147575f80fd5b5061015061038b565b60405161015d91906104cc565b60405180910390f35b348015610171575f80fd5b5061018c6004803603810190610187919061059e565b610391565b60405161019991906104cc565b60405180910390f35b6101aa6103a6565b005b5f47905090565b5f8054906101000a900473ffffffffffffffffffffffffffffffffffffffff1673ffffffffffffffffffffffffffffffffffffffff163373ffffffffffffffffffffffffffffffffffffffff1614610240576040517f08c379a000000000000000000000000000000000000000000000000000000000815260040161023790610623565b60405180910390fd5b60035f9054906101000a900460ff1661028e576040517f08c379a00000000000000000000000000000000000000000000000000000000081526004016102859061068b565b60405180910390fd5b5f4790505f8054906101000a900473ffffffffffffffffffffffffffffffffffffffff1673ffffffffffffffffffffffffffffffffffffffff166108fc8290811502906040515f60405180830381858888f193505050501580156102f4573d5f803e3d5ffd5b507feaff4b37086828766ad3268786972c0cd24259d4c87a80f9d3963a3c3d999b0d5f8054906101000a900473ffffffffffffffffffffffffffffffffffffffff16826040516103459291906106a9565b60405180910390a150565b60015481565b60035f9054906101000a900460ff1681565b5f8054906101000a900473ffffffffffffffffffffffffffffffffffffffff1681565b60025481565b6004602052805f5260405f205f915090505481565b5f34116103e8576040517f08c379a00000000000000000000000000000000000000000000000000000000081526004016103df9061071a565b60405180910390fd5b3460045f3373ffffffffffffffffffffffffffffffffffffffff1673ffffffffffffffffffffffffffffffffffffffff1681526020019081526020015f205f8282546104349190610765565b925050819055503460025f82825461044c9190610765565b925050819055507f264f630d9efa0d07053a31163641d9fcc0adafc9d9e76f1c37c2ce3a558d2c5233346040516104849291906106a9565b60405180910390a1600154600254106104b257600160035f6101000a81548160ff0219169083151502179055505b565b5f819050919050565b6104c6816104b4565b82525050565b5f6020820190506104df5f8301846104bd565b92915050565b5f8115159050919050565b6104f9816104e5565b82525050565b5f6020820190506105125f8301846104f0565b92915050565b5f73ffffffffffffffffffffffffffffffffffffffff82169050919050565b5f61054182610518565b9050919050565b61055181610537565b82525050565b5f60208201905061056a5f830184610548565b92915050565b5f80fd5b61057d81610537565b8114610587575f80fd5b50565b5f8135905061059881610574565b92915050565b5f602082840312156105b3576105b2610570565b5b5f6105c08482850161058a565b91505092915050565b5f82825260208201905092915050565b7f4f6e6c79206f776e65722063616e2077697468647261770000000000000000005f82015250565b5f61060d6017836105c9565b9150610618826105d9565b602082019050919050565b5f6020820190508181035f83015261063a81610601565b9050919050565b7f476f616c206e6f742072656163686564207965740000000000000000000000005f82015250565b5f6106756014836105c9565b915061068082610641565b602082019050919050565b5f6020820190508181035f8301526106a281610669565b9050919050565b5f6040820190506106bc5f830185610548565b6106c960208301846104bd565b9392505050565b7f4d7573742073656e642045544820746f20646f6e6174650000000000000000005f82015250565b5f6107046017836105c9565b915061070f826106d0565b602082019050919050565b5f6020820190508181035f830152610731816106f8565b9050919050565b7f4e487b71000000000000000000000000000000000000000000000000000000005f52601160045260245ffd5b5f61076f826104b4565b915061077a836104b4565b925082820190508082111561079257610791610738565b5b9291505056fea2646970667358221220f6906a26236a630807ee6620677cf6aeeb9ec8dc97ab790944ab2ade6f208c0d64736f6c63430008150033",
  "immutableReferences": {},
  "source": "// SPDX-License-Identifier: MIT\r\npragma solidity ^0.8.0;\r\n\r\ncontract CharityFund {\r\n    address public owner;\r\n    uint public goal = 1 ether; //  \r\n    uint public totalRaised;\r\n    bool public goalReached;\r\n\r\n    mapping(address => uint) public donations;\r\n\r\n    event DonationReceived(address donor, uint amount);\r\n    event FundsWithdrawn(address receiver, uint amount);\r\n\r\n    constructor() {\r\n        owner = msg.sender;\r\n        totalRaised = 0;\r\n        goalReached = false;\r\n    }\r\n\r\n    function donate() external payable {\r\n        require(msg.value > 0, \"Must send ETH to donate\");\r\n        donations[msg.sender] += msg.value;\r\n        totalRaised += msg.value;\r\n        emit DonationReceived(msg.sender, msg.value);\r\n        if (totalRaised >= goal) {\r\n            goalReached = true;\r\n        }\r\n    }\r\n\r\n    function withdraw() external {\r\n        require(msg.sender == owner, \"Only owner can withdraw\");\r\n        require(goalReached, \"Goal not reached yet\");\r\n        uint amount = address(this).balance;\r\n        payable(owner).transfer(amount);\r\n        emit FundsWithdrawn(owner, amount);\r\n    }\r\n\r\n    function getBalance() public view returns (uint) {\r\n        return address(this).balance;\r\n    }\r\n}\r\n",
  "sourcePath": "C:\\Users\\Rerukui\\charity-dapp\\contracts\\CharityFund.sol",
  "compiler": {
    "name": "solc",
    "version": "0.8.21+commit.d9974bed.Emscripten.clang"
  },
  "schemaVersion": "3.4.16",
  "updatedAt": "2025-05-14T11:00:55.315Z",
  "devdoc": {
    "kind": "dev",
    "methods": {},
    "version": 1
  },
  "userdoc": {
    "kind": "user",
    "methods": {},
    "version": 1
  }
}